:100000000C9477000C949F000C949F000C949F001C
:100010000C949F000C949F000C949F000C94D007AC
:100020000C949F000C949F000C949F000C949F00D4
:100030000C949F000C949F000C949F000C949F00C4
:100040000C9467060C949F000C9435060C940F06D4
:100050000C949F000C949F000C949F000C949F00A4
:100060000C94B1060C949F000000000800020100EF
:1000700000030407000000000000000043686563FF
:100080006B20666F722073657475700054797065AB
:1000900020475320746F20656E74657220736574F9
:1000A00075703A004C65747320737461727400004B
:1000B000000000250028002B00000000002400277D
:1000C000002A0004040404040404040202020202DC
:1000D000020303030303030102040810204080010C
:1000E0000204081020010204081020001A0811243C
:1000F0001FBECFEFD8E0DEBFCDBF23E0A2EDB1E061
:1001000001C01D92A234B207E1F711E0A0E0B1E016
:10011000E4EAF6E102C005900D92A23DB107D9F7DD
:1001200010E0C7E7D0E004C02197FE010E944A0B0F
:10013000C637D107C9F70E9453080C94500B0C9492
:1001400000002091980281E0213208F044C08091A3
:1001500074028111FCCF8091970292E09093740217
:1001600091E0909373029FEF90937202109271024C
:1001700020937002A7E7B2E0E0E5F2E090E02913F7
:1001800031C010924F0290914F02880F892B8093BB
:100190004F0280914E02813049F510924E028091BB
:1001A0004F028093BB008091BC0083FDF8CF85ECAB
:1001B0008093BC00809174028230E1F380917202DE
:1001C0008F3FB1F0809172028032A1F08091720273
:1001D000803391F084E0109276021092980210928F
:1001E000750208953D9131939F5FC9CF85EEE0CFB1
:1001F00080E0F1CF82E0EFCF83E0EDCF90E0FC0133
:10020000E952FF4F24918D539F4FFC018491882325
:1002100099F090E0880F991FFC01E754FF4FA591DA
:10022000B491FC01E155FF4F859194918FB7F894FB
:10023000EC91E22BEC938FBF089508950895AF924F
:10024000BF92CF92DF92EF92FF920F931F93CF93C3
:10025000DF936C017B018B01040F151FEB015E0125
:10026000AE18BF08C017D10759F06991D601ED91BA
:10027000FC910190F081E02DC6010995892B79F759
:10028000C501DF91CF911F910F91FF90EF90DF900B
:10029000CF90BF90AF900895FC01538D448D252FD2
:1002A00030E0842F90E0821B930B541710F0CF9610
:1002B000089501970895FC01918D828D981761F042
:1002C000A28DAE0FBF2FB11D5D968C91928D9F5F59
:1002D0009F73928F90E008958FEF9FEF0895FC0138
:1002E000918D828D981731F0828DE80FF11D858DEB
:1002F00090E008958FEF9FEF0895FC01918D228D7E
:10030000892F90E0805C9F4F821B91098F73992702
:10031000089589E992E00E947D0121E0892B09F48A
:1003200020E0822F089580E090E0892B29F00E9440
:10033000890181110C9400000895FC01A48DA80F7F
:10034000B92FB11DA35ABF4F2C91848D90E0019617
:100350008F739927848FA689B7892C93A089B18937
:100360008C91837080648C93938D848D981306C0D8
:100370000288F389E02D80818F7D80830895EF923C
:10038000FF920F931F93CF93DF93EC0181E0888F4F
:100390009B8D8C8D98131AC0E889F989808185FF1F
:1003A00015C09FB7F894EE89FF896083E889F989C1
:1003B00080818370806480839FBF81E090E0DF91C3
:1003C000CF911F910F91FF90EF900895F62E0B8D16
:1003D00010E00F5F1F4F0F731127E02E8C8D8E11D1
:1003E0000CC00FB607FCFACFE889F989808185FF38
:1003F000F5CFCE010E949D01F1CFEB8DEC0FFD2FCB
:10040000F11DE35AFF4FF0829FB7F8940B8FEA89F2
:10041000FB8980818062CFCFCF93DF93EC01888D01
:100420008823B9F0AA89BB89E889F9898C9185FD6F
:1004300003C0808186FD0DC00FB607FCF7CF8C91FD
:1004400085FFF2CF808185FFEDCFCE010E949D0117
:10045000E9CFDF91CF91089590E0FC01E859FF4F7B
:100460002491FC01E952FF4F3491FC01ED53FF4F01
:10047000E491EE23C9F0222339F0233001F1A8F4EE
:10048000213019F1223029F1F0E0EE0FFF1FE15584
:10049000FF4FA591B4918FB7F894EC91611126C0EC
:1004A00030953E233C938FBF08952730A9F0283024
:1004B000C9F0243049F7809180008F7D03C080917E
:1004C00080008F7780938000DFCF84B58F7784BDE5
:1004D000DBCF84B58F7DFBCF8091B0008F77809389
:1004E000B000D2CF8091B0008F7DF9CF3E2BDACF14
:1004F0003FB7F8948091370290913802A091390269
:10050000B0913A0226B5A89B05C02F3F19F001967D
:10051000A11DB11D3FBFBA2FA92F982F8827BC015D
:10052000CD01620F711D811D911D42E0660F771F85
:10053000881F991F4A95D1F708958F929F92AF9285
:10054000BF92CF92DF92EF92FF924B015C010E942B
:1005500078026B017C010E9478026C197D098E097A
:100560009F09683E734081059105A8F321E0821A36
:100570009108A108B10888EEC80E83E0D81EE11CDE
:10058000F11C81149104A104B10429F7FF90EF90AC
:10059000DF90CF90BF90AF909F908F90089585EDA2
:1005A0008093BC008091BC0084FDFCCF109274024B
:1005B000089520911302260F3327331F213231056E
:1005C000ECF420917402FC0190E080E0243069F0AA
:1005D00082E00895A09113022191AC014D505E4F2D
:1005E000A40FB52FB11D2C930196861798F3809117
:1005F0001302680F6093130280E0089581E008956C
:100600000895E091400280913F02E81730F4F0E055
:10061000ED52FE4F808190E008958FEF9FEF089597
:100620009091400280913F022FEF3FEF981748F4DE
:10063000E92FF0E0ED52FE4F208130E09F5F909374
:100640004002C901089580913F0290914002891BA8
:10065000990B0895CF92DF92EF92FF920F931F9321
:10066000CF93DF937C01CB018A0120917502222375
:1006700089F0EB016B01C40ED51ECC15DD0569F0C8
:100680006991D701ED91FC910190F081E02DC701B6
:100690000995F3CF642F0E94D902C801DF91CF9151
:1006A0001F910F91FF90EF90DF90CF900895CF931F
:1006B000DF931F92CDB7DEB76983209175022223A5
:1006C000F9F020919802203258F021E030E0FC014E
:1006D0003383228390E080E00F90DF91CF910895E3
:1006E00080917602E82FF0E0E958FD4F99819083E0
:1006F0008F5F809376028093980281E090E0ECCF48
:1007000061E0CE0101960E94D902F7CF90E080E02F
:100710000895CF9381E08093750288E680939702D5
:10072000109276021092980260E086E393E00E94B5
:10073000570380914702CAE06C2F0E941C0B8295E0
:10074000807F682F690F86E393E00E9457038091B2
:1007500048026C2F0E941C0B8295807F682F690FC6
:1007600086E393E00E94570380914A026C2F0E9417
:100770001C0B8295807F682F690F86E393E00E94AF
:10078000570380914B026C2F0E941C0B8295807F37
:10079000682F690F86E393E00E94570380914C0213
:1007A0006C2F0E941C0B8295807F682F690F86E357
:1007B00093E00E94570380914D026C2F0E941C0B06
:1007C0008295807F682F690F86E393E00E9457032C
:1007D000809146026C2F0E941C0B8295807F682FAF
:1007E000690F86E393E00E945703CF910C94A10018
:1007F000CF93DF93CAE0D0E089E992E00E947D01C7
:10080000181619062CF489E992E00E945B01F4CFD6
:10081000219791F7DF91CF9108950F931F93CF9375
:10082000DF930E94F80310E0D0E0C0E00AE0DD3082
:1008300029F189E992E00E947D0118161906BCF79A
:1008400089E992E00E945B01D82F80ED8D0F8A30FC
:1008500060F46D2F89E992E00E94BF018D2FC09F47
:10086000800D1124C82FC053E2CFDD3201F76DE2B5
:1008700089E992E00E94BF0111E0DBCF1111C1951F
:100880000E94F8038C2FDF91CF911F910F91089553
:1008900060E082E00E942C0260E083E00E942C0273
:1008A00060E084E00E942C0260E085E00E942C025F
:1008B00060E086E00E942C0260E087E00E942C024B
:1008C00060E088E00E942C0260E089E00C942C0239
:1008D0001F93CF93DF93182FC62F669561708EE01C
:1008E0000E942C02C2FB662760F98FE00E942C0256
:1008F000C3FB662760F980E10E942C02DC2FD170D7
:100900006C2F609561701330C9F01430E9F012302B
:1009100079F082E00E942C026D2F83E00E942C026D
:100920006091D2018AE0DF91CF911F910C942C024B
:1009300084E00E942C026D2F85E0F0CF86E00E94BB
:100940002C026D2F87E0EACF88E00E942C026D2FE9
:1009500089E0E4CFFC0101900020E9F73197AF0175
:10096000481B590BBC0189E992E00C941F010C94BF
:10097000AA040F931F93CF93DF938C01D0E0C0E0C4
:10098000F801EC0FFD1F6491662341F089E992E0C4
:100990000E94BF01892B11F02196F2CF8BE291E0EA
:1009A0000E94AA048C0F9D1FDF91CF911F910F9180
:1009B0000895CF93DF930E94AA04EC018BE291E0AB
:1009C0000E94AA048C0F9D1FDF91CF910895CF92B2
:1009D000DF92EF92FF920F931F93CF93DF93CDB7E8
:1009E000DEB7A1970FB6F894DEBF0FBECDBF282F9C
:1009F00030E050E040E019A28E010F5D1F4F8AE009
:100A0000C82ED12CE12CF12CCA01B901A701960105
:100A10000E94280B605DF80162938F01211531055A
:100A20004105510589F790E080E0309719F0CF013A
:100A30000E94AA04A1960FB6F894DEBF0FBECDBFE8
:100A4000DF91CF911F910F91FF90EF90DF90CF90AA
:100A50000895CF93DF930E94E704EC018BE291E0CD
:100A60000E94AA048C0F9D1FDF91CF9108950F93D0
:100A70001F93CF93DF9381E08093750288E6809384
:100A80009702109276021092980260E086E393E05B
:100A90000E9457030E94A100809174028111FCCF33
:100AA00081E080937402809373029FEF90937202AF
:100AB0001092710296E09093700280934F028091A1
:100AC0004F02806D80934F0280914E02813009F079
:100AD000A0C010924E0280914F028093BB00809183
:100AE000BC0083FDF8CF85EC8093BC00809174023C
:100AF0008130E1F38091710297E0873010F490919A
:100B00007102E0E5F2E0A3EDB1E080E0891383C07B
:100B10001092400280933F0286E393E00E9410030C
:100B2000982F929597700AE08F70182F909F100D54
:100B300011241093470286E393E00E941003982F3C
:100B400092959F708F70C82F909FC00D1124C093F5
:100B5000480286E393E00E941003982F92959370C9
:100B60008F70D82F909FD00D1124D0934A0286E326
:100B700093E00E941003982F92959F708F70909F22
:100B8000800D112480934B0286E393E00E941003B2
:100B9000982F92959F708F70909F800D1124809355
:100BA0004C0286E393E00E941003982F92959F7069
:100BB0008F70909F800D112480934D0286E393E007
:100BC0000E941003982F92959F708F70909F800DB8
:100BD0001124809346028D2F602F0E941C0B80935E
:100BE000040126EF829FD00D1124D09305018C2F94
:100BF0000E941C0B80930601829FC00D1124C0939C
:100C0000450211701093D201DF91CF911F910F9186
:100C1000089585EE69CF21912D938F5F77CF1F9235
:100C20000F920FB60F9211242F933F934F935F9320
:100C30006F937F938F939F93AF93BF93EF93FF93A4
:100C400089E992E00E949D01FF91EF91BF91AF91E0
:100C50009F918F917F916F915F914F913F912F91D4
:100C60000F900FBE0F901F9018951F920F920FB606
:100C70000F9211242F938F939F93EF93FF93E09103
:100C8000A902F091AA028081E091AF02F091B00236
:100C900082FD1BC090818091B2028F5F8F73209183
:100CA000B302821741F0E091B202F0E0E756FD4F47
:100CB000958F8093B202FF91EF919F918F912F9129
:100CC0000F900FBE0F901F9018958081F4CF1F9248
:100CD0000F920FB60F9211242F933F938F939F93F0
:100CE000AF93BF938091410290914202A091430241
:100CF000B09144023091360223E0230F2D3758F58E
:100D00000196A11DB11D209336028093410290935C
:100D10004202A0934302B093440280913702909123
:100D20003802A0913902B0913A020196A11DB11D7D
:100D30008093370290933802A0933902B0933A021D
:100D4000BF91AF919F918F913F912F910F900FBEC7
:100D50000F901F90189526E8230F0296A11DB11D34
:100D6000D2CF1F920F920FB60F9211242F933F9361
:100D70004F935F936F937F938F939F93AF93BF93A3
:100D8000EF93FF938091B900887F803609F44AC0C1
:100D9000F0F5883209F4A7C018F5803109F49BC03A
:100DA000B8F4882309F4F9C0883009F494C0FF919D
:100DB000EF91BF91AF919F918F917F916F915F91D3
:100DC0004F913F912F910F900FBE0F901F9018954C
:100DD000883109F488C0803251F78093720214C0C0
:100DE000803409F49DC040F48033B9F38833F9F6B8
:100DF0008093720285ECB0C0803509F485C08835D7
:100E000009F496C0883499F60E94CF02D0CF883971
:100E100009F48CC038F5883729F050F4883611F081
:100E2000803729F683E0809374021092350257C010
:100E3000883809F47BC0803919F0803809F0B7CFC1
:100E400080913502803208F071C0E091350281E076
:100E50008E0F809335028091BB00F0E0EB5EFD4F7A
:100E600080833DC0803B39F0E0F4803A09F479C0DA
:100E7000883A09F09CCF84E08093740210921402A7
:100E800010921302E0913D02F0913E02099580918B
:100E9000130281110FC081E0809313021092F301BD
:100EA00009C0803C09F4A6CF883C09F4A3CF883B55
:100EB00009F07DCFE091140281E08E0F809314023F
:100EC000F0E0ED50FE4F80818093BB0090911402C2
:100ED0008091130229C080914F028093BB0085EC62
:100EE0008093BC0064CF909171028091700298173A
:100EF00058F5E091710281E08E0F80937102F0E06D
:100F0000E05BFD4F8081E9CFE091710281E08E0FBF
:100F1000809371028091BB00F0E0E05BFD4F808325
:100F200090917102809170029817C8F285E8D8CF2D
:100F3000E091710281E08E0F809371028091BB007D
:100F4000F0E0E05BFD4F80838091730281115CCF04
:100F500081E080934E0284EA8093BC001092740278
:100F600026CF85EC8093BC001092740280913502EC
:100F7000803230F4E0913502F0E0EB5EFD4F1082FC
:100F80006091350270E0E0913B02F0913C0285E116
:100F900092E00995109235020ACF1092720234CF76
:100FA0001F920F920FB60F9211242F933F934F93DE
:100FB0005F936F937F938F939F93AF93BF93EF93C1
:100FC000FF93809100018F5F8530E1F080930001F5
:100FD0000E94480480910001823021F1A8F4813000
:100FE000D9F0FF91EF91BF91AF919F918F917F9138
:100FF0006F915F914F913F912F910F900FBE0F9086
:101000001F90189581E0E2CF833081F0843049F75A
:101010006091040184E003C06091450281E00E9478
:101020006804DFCF6091060182E0F9CF609105018D
:1010300083E0F5CFE9E9F2E01382128288EE93E0D3
:10104000A0E0B0E084839583A683B7832BE031E0F2
:101050003183208325EC30E03587248724EC30E091
:101060003787268720EC30E0318B208B21EC30E075
:10107000338B228B22EC30E0358B248B26EC30E056
:10108000378B268B118E128E138E148EE6E3F3E0CF
:101090001382128284839583A683B7838DE191E0C6
:1010A000918380830895789484B5826084BD84B5EB
:1010B000816084BD85B5826085BD85B5816085BD53
:1010C00080916E00816080936E001092810080910B
:1010D0008100826080938100809181008160809393
:1010E0008100809180008160809380008091B100B8
:1010F00084608093B1008091B00081608093B000E3
:1011000080917A00846080937A0080917A00826076
:1011100080937A0080917A00816080937A00809138
:101120007A00806880937A001092C1008EE00E945D
:10113000FE008FE00E94FE0080E10E94FE0082E03F
:101140000E94FE0083E00E94FE0084E00E94FE00F8
:1011500085E00E94FE0086E00E94FE0087E00E947B
:10116000FE0088E00E94FE0089E00E94FE008AE006
:101170000E94FE000E944804E091A902F091AA0298
:1011800082E08083E091A502F091A6021082E091B6
:10119000A702F091A8028FEC80831092B102E09137
:1011A000AD02F091AE0286E08083E091AB02F09157
:1011B000AC02808180618083E091AB02F091AC024F
:1011C000808188608083E091AB02F091AC028081E5
:1011D00080688083E091AB02F091AC0280818F7DCA
:1011E000808384EA90E00E94B90410924002109239
:1011F0003F0210927602109298021092740281E0DF
:101200008093730210924E0261E082E10E942C02F0
:1012100061E083E10E942C028091B9008E7F80936F
:10122000B9008091B9008D7F8093B90088E48093E4
:10123000B80085E48093BC008DE191E090933E027C
:1012400080933D028EE191E090933C0280933B02BB
:10125000F8941092B0001092B1001092B2008AEF90
:101260008093B3008091B00082608093B000809141
:10127000B10084608093B10080917000826080939F
:1012800070007894C0E0C0934502C0930601C093FB
:101290000501C093040164EF71E080E090E00E94DA
:1012A0009D02CF5FCA3079F78CE890E00E94B904C4
:1012B00068E873E180E090E00E949D0289E992E095
:1012C0000E947D01892B09F459C08CE790E00E94AF
:1012D000B90401E011E0D8010D900020E9F78D017B
:1012E00002501140D0E0C0E009F0CBC08EE291E0A6
:1012F0000E94B7040E940D04809346020E942905B3
:1013000084E391E00E94B7040E940D0480934D0293
:101310000E9429058BE391E00E94B7040E940D040E
:1013200080934C020E94290580E491E00E94B7045A
:101330000E940D0480934B020E94290588E591E0EC
:101340000E94B7040E940D0480934A020E9429055E
:101350008EE591E00E94B7040E940D04809348023C
:101360000E94290586E691E00E94B7040E940D04C0
:10137000809347020E9429050E9489030E94370535
:1013800080914D02833009F0E8C090914C02993170
:1013900018F091E0909349028450863018F481E06F
:1013A00080934902C0E0D0E068EE73E080E090E016
:1013B0000E949D020E94370580914A020E94E70424
:1013C00086E591E00E94B704809148028A3020F4BB
:1013D0008EE691E00E94B704809148020E94E704E3
:1013E00086E591E00E94B704809147028A3020F49C
:1013F0008EE691E00E94B704809147020E94E704C4
:1014000087E991E00E94B70480914C020E94E704B2
:1014100080E791E00E94B70480914D020E94E704AA
:1014200080E791E00E94B704809146020E94E704A1
:1014300080914902882309F499C082E791E00E94D3
:10144000B7048AE891E00E94B704E0914B02E150B2
:10145000E73008F092C0F0E0E05DF54F0C944A0BE5
:10146000B90AE20AE50AE80AEB0AEE0AF10A21E003
:1014700030E006C0BF01209709F042C030E020E014
:10148000E9012FB7F8948091410290914202A09116
:101490004302B09144022FBF8093A1029093A20215
:1014A000A093A302B093A40289E992E00E945B0199
:1014B00097FFAFC02FB7F8948091410290914202FC
:1014C000A0914302B09144022FBF4091A1025091DC
:1014D000A2026091A3027091A402841B950BA60B3B
:1014E000B70B40919D0250919E0260919F027091B6
:1014F000A00284179507A607B707B0F23FCFE9010E
:101500009E01215031094291042E000C550B4817C1
:10151000590721F02115310591F7B2CF2115310579
:1015200009F4A5CF41E0E42E41E0F42E5B01A21ABC
:10153000B30A50E040E0D701CD907D01D501DD90A8
:101540005D01CD1005C04F5F5F4F4217530798F301
:1015500024173507A1F69E0193CF8A3009F01CCFDE
:1015600090914C02983108F414CF16CF8EE791E099
:1015700066CF89E991E00E94D90480914D028330C1
:1015800099F590914C02993190F090914B029130E5
:1015900071F420914A02223051F420914902211124
:1015A00006C09093490280934A020E9489032097C3
:1015B00009F4FACE0E948901882309F4F5CE0E942D
:1015C0000000F2CE80EA91E0D6CF87EA91E0D3CF57
:1015D0008FEA91E0D0CF89EB91E0CDCF82EC91E022
:1015E000CACF89EC91E0C7CF8A3009F780914C02CD
:1015F0008931E8F280914B028130C9F690914A021C
:101600009230A9F690914902992389F210924902E9
:10161000CACFFE01EF5FFE4F2081022E000C330B7C
:101620002817390709F026CF9E012F5F3F4F021779
:10163000130709F025CF5ACE991B79E004C0991FF2
:10164000961708F0961B881F7A95C9F7809508951C
:10165000A1E21A2EAA1BBB1BFD010DC0AA1FBB1FB6
:10166000EE1FFF1FA217B307E407F50720F0A21B28
:10167000B30BE40BF50B661F771F881F991F1A9495
:1016800069F760957095809590959B01AC01BD01BF
:10169000CF010895EE0FFF1F0590F491E02D0994FE
:0416A000F894FFCFEC
:1016A4000147530003020100000000BF011F014C69
:1016B400010C027D015B016F010000000057032A49
:1016C40003860300032303100301030D0A00596575
:1016D40061723A004D6F6E74683A004461793A0061
:1016E400446179206F66207765656B2028313D73EE
:1016F400756E646179293A00486F75723A004D69D4
:101704006E7574653A005365636F6E643A00300019
:101714002F002053756D6D657274696D65002057D7
:10172400696E74657274696D650020446179206F17
:1017340066207765656B3A200053756E64617900A5
:101744004D6F6E64617900547565736461790057F7
:1017540065646E657364617900546875727364615D
:1017640079004672696461790053617475726461C9
:021774007900FA
:00000001FF
