:100000000C947E000C94A6000C94A6000C94A60000
:100010000C94A6000C94A6000C94A6000C94260840
:100020000C94A6000C94A6000C94A6000C94A600B8
:100030000C94A6000C94A6000C94A6000C94A600A8
:100040000C9498020C94A6000C9403050C94DD0407
:100050000C94A6000C94A6000C94A6000C94A60088
:100060000C9435050C94A600240B270B2A0B2D0BA2
:10007000300B330B360B436865636B20666F722061
:100080007365747570005479706520475320746FE0
:1000900020656E7465722073657475703A004C65E6
:1000A0007473207374617274000000000800020110
:1000B0000000030407000000000000000000000032
:1000C00000250028002B0000000000240027002A43
:1000D00000040404040404040402020202020203F1
:1000E00003030303030102040810204080010204FB
:1000F000081020010204081020006E0811241FBE01
:10010000CFEFD8E0DEBFCDBF23E0A2EDB1E001C06C
:100110001D92AA34B207E1F711E0A0E0B1E0EEE4ED
:10012000F7E102C005900D92A23DB107D9F710E0AA
:10013000CEE7D0E004C02197FE010E949A0BCD3794
:10014000D107C9F70E94A7080C94A50B0C940000D6
:1001500090E0FC01EB51FF4F2491FC01EF52FF4F67
:100160008491882399F090E0880F991FFC01E9534E
:10017000FF4FA591B491FC01E354FF4F85919491F9
:100180008FB7F894EC91E22BEC938FBF08953FB7B3
:10019000F8948091D6029091D702A091D802B091A4
:1001A000D90226B5A89B05C02F3F19F00196A11DC5
:1001B000B11D3FBFBA2FA92F982F8827820F911DFD
:1001C000A11DB11DBC01CD0142E0660F771F881F44
:1001D000991F4A95D1F708958F929F92AF92BF923F
:1001E000CF92DF92EF92FF926B017C010E94C700D9
:1001F0004B015C01C114D104E104F104F1F00E944F
:10020000C700DC01CB0188199909AA09BB09883EFE
:100210009340A105B10570F321E0C21AD108E108AD
:10022000F10888EE880E83E0981EA11CB11CC11451
:10023000D104E104F10419F7DDCFFF90EF90DF90D6
:10024000CF90BF90AF909F908F900895CF92DF9204
:10025000EF92FF920F931F93CF93DF936C017A017C
:100260008B01C0E0D0E0CE15DF0589F0D8016D919B
:100270008D01D601ED91FC910190F081E02DC60138
:100280000995892B11F47E0102C02196ECCFC7019C
:10029000DF91CF911F910F91FF90EF90DF90CF9062
:1002A0000895009769F0FC0101900020E9F731976B
:1002B000AF01481B590BBC0187E292E00C94260168
:1002C00080E090E008958F929F92AF92BF920F933B
:1002D0001F93CF93DF93CDB7DEB7A1970FB6F894F6
:1002E000DEBF0FBECDBF19A2423008F44AE08E0136
:1002F0000F5D1F4F842E912CA12CB12CA5019401D0
:100300000E94780BE62FB901CA0101501109EA30A9
:1003100014F4E05D01C0E95CD801EC93232B242B9D
:10032000252B61F7C8010E945101A1960FB6F894E0
:10033000DEBF0FBECDBFDF91CF911F910F91BF9058
:10034000AF909F908F9008950F931F93CF93DF935B
:100350008C01C0E0D0E0F801EC0FFD1F6491662332
:1003600071F0E0912702F09128020190F081E02DD8
:1003700087E292E00995892B11F02196ECCF8BE270
:1003800091E00E9451018C0F9D1FDF91CF911F9131
:100390000F9108950C945101CF93DF930E94510166
:1003A000EC018BE291E00E9451018C0F9D1FDF91C7
:1003B000CF910895CF93DF93682F70E080E090E0B5
:1003C0004AE00E946301EC018BE291E00E9451013E
:1003D0008C0F9D1FDF91CF9108950E94A00B20915B
:1003E000260290912502213208F04AC08091020233
:1003F0008111FCCF32E03093020231E030930102F0
:100400003FEF309300021092FF012093FE01A5E020
:10041000B2E04EED51E0FA013E2F341B321718F4D2
:100420003D913193F9CF1092DD012091DD01990FBB
:10043000922B9093DD019091DC01913061F4109248
:10044000DC019091DD019093BB009091BC0093FD85
:10045000F8CF95EC01C095EE9093BC00909102020C
:100460009230E1F3909100029F3F79F08091000279
:10047000803241F080910002803331F084E005C089
:1004800081E003C082E001C083E010920402109278
:10049000260210920302089590E0FC01E755FF4FF9
:1004A0003491FC01EB51FF4F2491FC01EF52FF4FBF
:1004B000E491EE2309F43BC0332339F1333091F05A
:1004C00038F43130A9F0323001F584B58F7D12C097
:1004D000373091F03830A1F03430B9F48091800099
:1004E0008F7D03C0809180008F77809380000DC046
:1004F00084B58F7784BD09C08091B0008F7703C029
:100500008091B0008F7D8093B000F0E0EE0FFF1F70
:10051000E354FF4FA591B4918FB7F894EC9161111A
:1005200003C020952E2301C02E2B2C938FBF08953E
:100530001F920F920FB60F9211242F933F938F9318
:100540009F93AF93BF938091D2029091D302A091D9
:10055000D402B091D5023091D10223E0230F2D3780
:1005600020F40196A11DB11D05C026E8230F0296B7
:10057000A11DB11D2093D1028093D2029093D3028A
:10058000A093D402B093D5028091D6029091D70265
:10059000A091D802B091D9020196A11DB11D8093FE
:1005A000D6029093D702A093D802B093D902BF91FC
:1005B000AF919F918F913F912F910F900FBE0F9010
:1005C0001F901895FC01538D448D252F30E0842F0A
:1005D00090E0821B930B541710F0CF96089501976B
:1005E0000895FC01918D828D981761F0828DDF0155
:1005F000A80FB11D5D968C91928D9F5F9F73928F16
:1006000090E008958FEF9FEF0895FC01918D828D0A
:10061000981731F0828DE80FF11D858D90E00895D7
:100620008FEF9FEF0895FC01918D228D892F90E02F
:10063000805C9F4F821B91098F739927089587E2F1
:1006400092E00E94130321E0892B09F420E0822F1D
:100650000895FC01848DDF01A80FB11DA35ABF4F7F
:100660002C91848D90E001968F739927848FA689B1
:10067000B7892C93A089B1898C9180648C93938DD8
:10068000848D981306C00288F389E02D80818F7DC8
:1006900080830895EF92FF920F931F93CF93DF9380
:1006A000EC0181E0888F9B8D8C8D981305C0E889C3
:1006B000F989808185FD24C0F62E0B8D10E00F5F37
:1006C0001F4F0F731127E02E8C8DE8120CC00FB650
:1006D00007FCFACFE889F989808185FFF5CFCE0143
:1006E0000E942903F1CF8B8DFE01E80FF11DE35A23
:1006F000FF4FF0820B8FEA89FB898081806207C0FF
:10070000EE89FF896083E889F9898081806480832C
:1007100081E090E0DF91CF911F910F91FF90EF90DA
:100720000895CF93DF93EC01888D8823C9F0EA897F
:10073000FB89808185FD05C0A889B9898C9186FDDA
:100740000FC00FB607FCF5CF808185FFF2CFA889D7
:10075000B9898C9185FFEDCFCE010E942903E7CFA7
:10076000DF91CF91089580E090E0892B29F00E94DD
:100770001F0381110C94000008950895E091D301A6
:100780008091D201E81730F4F0E0E65DFC4F808103
:1007900090E008958FEF9FEF08959091D30180919D
:1007A000D201981750F4E92FF0E0E65DFC4F20816C
:1007B00030E09F5F9093D30102C02FEF3FEFC9015C
:1007C00008958091D20190E02091D301821B91097C
:1007D0000895089580E090E0089585ED8093BC0031
:1007E0008091BC0084FDFCCF1092020208954091DC
:1007F0000503262F30E0240F311D21323105DCF4B2
:10080000209102022430C9F4FC0180E090E08617B8
:1008100058F4309105032191DC01AD51BD4FA30F78
:10082000B11D2C930196F3CF80910503680F60935F
:10083000050380E0089581E0089582E00895CF9255
:10084000DF92EF92FF920F931F93CF93DF937C0180
:10085000262F972F8A0180910302882391F0C62FBB
:10086000D72F6E01C40ED51ECC15DD0571F0699130
:10087000D701ED91FC910190F081E02DC701099520
:10088000F3CF642F822F0E94F703C801DF91CF912D
:100890001F910F91FF90EF90DF90CF900895CF932D
:1008A000DF931F92CDB7DEB7698320910302222325
:1008B000D1F020912602203240F021E030E0FC010E
:1008C0003383228380E090E015C080910402E82FFA
:1008D000F0E0EB5FFD4F998190838F5F809304027E
:1008E0008093260205C061E0CE0101960E94F703C5
:1008F00081E090E00F90DF91CF910895CF93DF9347
:10090000CAE0D0E087E292E00E94130318161906AD
:100910002CF487E292E00E94F102F4CF219791F744
:10092000DF91CF910895CF93DF93D82FC62F66958F
:1009300061708EE00E944C02C2FB662760F98FE076
:100940000E944C02C3FB662760F980E10E944C02C2
:10095000D230C9F058F4D13049F5C1706C2F6D27F1
:1009600082E00E944C026C2F83E01EC0D330A1F0C5
:10097000D430E1F4C17061E06C2788E00E944C0241
:100980006C2F89E011C0C17061E06C2784E00E9487
:100990004C026C2F85E008C0C17061E06C2786E0D6
:1009A0000E944C026C2F87E00E944C026091E20290
:1009B0008AE0DF91CF910C944C021F920F920FB6F8
:1009C0000F9211242F933F934F935F936F937F93D5
:1009D0008F939F93AF93BF93EF93FF9387E292E040
:1009E0000E942903FF91EF91BF91AF919F918F9149
:1009F0007F916F915F914F913F912F910F900FBE1B
:100A00000F901F9018951F920F920FB60F921124FE
:100A10002F938F939F93EF93FF93E0913702F09181
:100A200038028081E0913D02F0913E0282FD12C0C9
:100A30009081809140028F5F8F73209141028217D5
:100A400051F0E0914002F0E0E95DFD4F958F809319
:100A5000400201C08081FF91EF919F918F912F9172
:100A60000F900FBE0F901F9018951F920F920FB608
:100A70000F9211242F933F934F935F936F937F9324
:100A80008F939F93AF93BF93EF93FF938091B900A0
:100A9000887F803609F49CC068F5883209F45BC011
:100AA00090F4803109F454C038F4882309F4F6C076
:100AB000883009F44DC0F6C0883109F44CC080324A
:100AC00009F45DC0EFC0803409F468C048F4803395
:100AD00009F455C0883309F0E5C080930002D8C0FE
:100AE000803509F44FC0883509F45DC0883409F0B9
:100AF000D9C0D6C0883909F4C7C0A8F4883709F42A
:100B000067C038F4883609F463C0803709F460C0E0
:100B1000C9C0883809F4B8C0803909F45FC080388A
:100B200009F0C0C05BC0803B09F486C038F4803A4D
:100B300009F466C0883A09F47FC0B4C0803C09F467
:100B4000A7C0883C09F4A4C0883B09F48AC0AAC0A5
:100B50008091DD0110C09091FF018091FE019817F6
:100B600070F5E091FF0181E08E0F8093FF01F0E0CE
:100B7000E252FE4F80818093BB0085EC86C080935B
:100B800000028EC0E091FF0181E08E0F8093FF0193
:100B90008091BB00F0E0E252FE4F80839091FF0114
:100BA0008091FE016EC0E091FF0181E08E0F809385
:100BB000FF018091BB00F0E0E252FE4F8083809104
:100BC000010281116DC081E08093DC0184EA61C083
:100BD00083E08093020210922903CFCF80912903F2
:100BE000803208F051C0E091290381E08E0F80939C
:100BF00029038091BB00F0E0E75FFC4F8083BDCF0D
:100C000085EC8093BC00109202028091290380320F
:100C100030F4E0912903F0E0E75FFC4F108260912F
:100C2000290370E0E0910703F091080389E093E065
:100C300009951092290336C084E080930202109235
:100C4000060310920503E0910303F0910403099554
:100C500080910503811105C081E080930503109206
:100C6000E302E091060381E08E0F80930603F0E03B
:100C7000ED51FD4F80818093BB00909106038091E0
:100C80000503981708F479CF85E88093BC000AC063
:100C900085EC8093BC001092020204C01092000206
:100CA0000E94ED03FF91EF91BF91AF919F918F91C2
:100CB0007F916F915F914F913F912F910F900FBE58
:100CC0000F901F90189581E08093030288E680932F
:100CD0002502109204021092260260E084EC92E059
:100CE0000E944F040E94EF01809102028111FCCF0B
:100CF00081E080930202809301029FEF90930002B3
:100D00001092FF0196E09093FE018093DD018091A7
:100D1000DD01806D8093DD018091DC01813061F423
:100D20001092DC018091DD018093BB008091BC00BA
:100D300083FDF8CF85EC01C085EE8093BC008091E7
:100D400002028130E1F38091FF01873018F4809135
:100D5000FF0101C087E0AEEDB1E02AE233E0F90126
:100D60009E2F921B981718F49D919193F9CF109292
:100D7000D3018093D20184EC92E00E94CD03982F9E
:100D80009695969596959E70292F220F220F920F79
:100D90008F70890F8093D60184EC92E00E94CD037E
:100DA000982F92959F708F702AE0929F800D11244A
:100DB0008093D70184EC92E00E94CD03982F969502
:100DC000969596959670292F220F220F920F8F706D
:100DD000890F8093D80184EC92E00E94CD03982F74
:100DE00092959F708F702AE0929F800D11248093BE
:100DF000D90184EC92E00E94CD03982F92959F70C8
:100E00008F702AE0929F800D11248093DA0184EC88
:100E100092E00E94CD03982F92959F708F702AE0E8
:100E2000929F800D11248093DB0184EC92E00E945C
:100E3000CD03982F92959F708F702AE0929F800D1E
:100E400011248093D5012091D8014AE0822F642F8C
:100E50000E946C0B8093030136EF839F200D1124B9
:100E6000209304012091D701822F0E946C0B809364
:100E70000501839F200D11242093D4018091D60178
:100E800081708093E2020895CF9381E08093030202
:100E900088E680932502109204021092260260E0F8
:100EA00084EC92E00E944F048091D601CAE06C2F3E
:100EB0000E946C0B692F20E1829F600D112484EC4D
:100EC00092E00E944F048091D7016C2F0E946C0B1E
:100ED000692F20E1829F600D112484EC92E00E9432
:100EE0004F048091D8016C2F0E946C0B692F20E178
:100EF000829F600D112484EC92E00E944F04809147
:100F0000D9016C2F0E946C0B692F20E1829F600D2C
:100F1000112484EC92E00E944F048091DA016C2F3E
:100F20000E946C0B692F20E1829F600D112484ECDC
:100F300092E00E944F048091DB016C2F0E946C0BA9
:100F4000692F20E1829F600D112484EC92E00E94C1
:100F50004F048091D5016C2F0E946C0B692F20E10A
:100F6000829F600D112484EC92E00E944F04CF9187
:100F70000C94EF01FF920F931F93CF93DF930E9486
:100F80007E041092DA0200E010E0F12CD0E0C0E024
:100F9000DD3069F187E292E00E941303181619060A
:100FA000BCF787E292E00E94F102D82F80ED8D0F0E
:100FB0008A3098F4F801E652FD4FD0830F5F1F4F3F
:100FC0006D2F87E292E00E944A03CC0F8C2F880F8E
:100FD000880FC80FC053CD0FDBCFDD32C9F66DE2ED
:100FE00087E292E00E944A03FF24F394D3CFF801F2
:100FF000E652FD4F1082F110C1950E947E048C2FA5
:10100000DF91CF911F910F91FF90089560E082E0F2
:101010000E944C0260E083E00E944C0260E084E0A9
:101020000E944C0260E085E00E944C0260E086E095
:101030000E944C0260E087E00E944C0260E088E081
:101040000E944C0260E089E00C944C021F920F92C7
:101050000FB60F9211242F933F934F935F936F938B
:101060007F938F939F93AF93BF93EF93FF93809161
:1010700006018F5F853009F481E0809306010E94AC
:10108000060880910601823079F030F48130A9F4AD
:101090006091D40181E00FC0833051F0843069F455
:1010A0006091030184E007C06091050182E003C004
:1010B0006091040183E00E949304FF91EF91BF913E
:1010C000AF919F918F917F916F915F914F913F91E0
:1010D0002F910F900FBE0F901F901895E7E2F2E04E
:1010E0001382128288EE93E0A0E0B0E084839583BF
:1010F000A683B7832BE031E03183208325EC30E0F9
:101100003587248724EC30E03787268720EC30E0D1
:10111000318B208B21EC30E0338B228B22EC30E0C2
:10112000358B248B26EC30E0378B268B118E128E7C
:10113000138E148EE4ECF2E0138212828483958382
:10114000A683B7838DE191E091838083089578949D
:1011500084B5826084BD84B5816084BD85B58260BC
:1011600085BD85B5816085BD80916E00816080936D
:101170006E001092810080918100826080938100D6
:1011800080918100816080938100809180008160E6
:10119000809380008091B10084608093B100809141
:1011A000B00081608093B00080917A008460809369
:1011B0007A0080917A00826080937A0080917A0030
:1011C000816080937A0080917A00806880937A00B1
:1011D0001092C1008EE00E94A8008FE00E94A8003B
:1011E00080E10E94A80082E00E94A80083E00E94A3
:1011F000A80084E00E94A80085E00E94A80086E084
:101200000E94A80087E00E94A80088E00E94A80031
:1012100089E00E94A8008AE00E94A8000E940608B7
:10122000E0913702F091380282E08083E09133024E
:10123000F09134021082E0913502F09136028FEC89
:10124000808310923F02E0913B02F0913C0286E0E5
:101250008083E0913902F0913A028081806180833D
:10126000E0913902F0913A02808188608083E091B8
:101270003902F0913A02808180688083E0913902DE
:10128000F0913A0280818F7D80838EE990E00E9408
:10129000A4011092D3011092D20110920402109274
:1012A00026021092020281E0809301021092DC017A
:1012B00061E082E10E944C0261E083E10E944C0205
:1012C0008091B9008E7F8093B9008091B9008D7FA5
:1012D0008093B90088E48093B80085E48093BC00D3
:1012E000F8941092B0001092B1001092B2008AEF00
:1012F0008093B3008091B00082608093B0008091B1
:10130000B10084608093B10080917000826080930E
:1013100070007894C0E0C093D401C0930501C093DD
:101320000401C093030164EF71E080E090E00E944B
:10133000EC00CF5FCA3079F786E890E00E94A40104
:1013400068E873E180E090E00E94EC0087E292E0C0
:101350000E941303892B09F4E5C086E790E00E9400
:10136000A401E0E0F1E001900020E9F73197EF01FE
:10137000C050D14009F48EC000E010E02FB7F894BF
:101380008091D2029091D302A091D402B091D50263
:101390002FBF80932F0290933002A0933102B0931D
:1013A0003202E0912702F09128020284F385E02DB9
:1013B00087E292E0099597FD0BC0F801E050FF4FDE
:1013C0002081022E000C330B8217930731F55CC08D
:1013D0002FB7F8948091D2029091D302A091D402B9
:1013E000B091D5022FBF40912F02509130026091F1
:1013F000310270913202841B950BA60BB70B409102
:101400002B0250912C0260912D0270912E028417B4
:101410009507A607B70728F285C00115110521F425
:1014200020E030E08901AACF9801A901415051097B
:10143000FA01E050FF4F6081062E000C770B8617F3
:101440009707F1F44115510569F3A0E0B1E060E0C0
:1014500070E07801E41AF50ADD90FB01EE0DFF1D46
:10146000E050FF4FE081DE1629F064177507D1F2D6
:101470009A01DBCF6F5F7F4F6417750768F3F5CF75
:1014800041155105A9F7CCCF98012F5F3F4F2C177D
:101490003D0741F682E991E00E94CA010E94BA0725
:1014A0008093D5010E94DA0188E991E00E94CA0187
:1014B0000E94BA078093DB010E94DA018FE991E074
:1014C0000E94CA010E94BA078093DA010E94DA01E1
:1014D00084EA91E00E94CA010E94BA078093D90170
:1014E0000E94DA018CEB91E00E94CA010E94BA07C7
:1014F0008093D8010E94DA0182EC91E00E94CA0137
:101500000E94BA078093D7010E94DA018AEC91E029
:101510000E94CA010E94BA078093D6010E94DA0194
:101520000E9444070E9463068091DB01833029F406
:101530009091DA01993150F006C08A3039F49091D7
:10154000DA01983118F491E09093D00284508630FB
:1015500018F481E08093D00268EE73E080E090E0C0
:101560000E94EC000E9463066091D80170E080E068
:1015700090E04AE00E9463018AEB91E00E94CA0178
:101580008091D7018A3020F48EE291E00E94CA0156
:101590006091D70170E080E090E04AE00E94630132
:1015A0008AEB91E00E94CA018091D6018A3020F432
:1015B0008EE291E00E94CA016091D60170E080E065
:1015C00090E04AE00E94630187E591E00E94CA0131
:1015D0006091DA0170E080E090E04AE00E946301EF
:1015E00080E391E00E94CA016091DB0170E080E03D
:1015F00090E04AE00E94630180E391E00E94CA010A
:101600006091D50170E080E090E04AE00E946301C3
:101610008091D002882319F082E391E002C08EE32A
:1016200091E00E94CA018AE491E00E94CA01E0911F
:10163000D9018E2F90E0FC013197E730F105D0F40D
:10164000EC5CFF4F0C949A0B89E591E011C080E6A9
:1016500091E00EC087E691E00BC08FE691E008C0F4
:1016600089E791E005C082E891E002C089E891E055
:101670000E94CC018091DB01833099F49091DA01D2
:10168000993138F19091D901913019F52091D80113
:101690002230F9F42091D00221111BC09093D00286
:1016A00014C08A30B1F48091DA01893190F08091D0
:1016B000D901813071F49091D801923051F4909118
:1016C000D002992331F01092D0028093D8010E9469
:1016D00044070E94B30340CF991B79E004C0991FCF
:1016E000961708F0961B881F7A95C9F7809508957C
:1016F000A1E21A2EAA1BBB1BFD010DC0AA1FBB1F16
:10170000EE1FFF1FA217B307E407F50720F0A21B87
:10171000B30BE40BF50B661F771F881F991F1A94F4
:1017200069F760957095809590959B01AC01BD011E
:10173000CF010895EE0FFF1F0590F491E02D09945D
:0E17400081E090E0F8940C94A50BF894FFCF94
:10174E0047530003020101000000004A032601E294
:10175E000291031303F1020503000000004F041F62
:10176E0004EA03BD03E103CD03BE030D0A003000FE
:10177E002F002053756D6D657274696D650020576D
:10178E00696E74657274696D650020446179206FAD
:10179E0066207765656B3A200053756E646179003B
:1017AE004D6F6E646179005475657364617900578D
:1017BE0065646E65736461790054687572736461F3
:1017CE00790046726964617900536174757264615F
:1017DE007900596561723A004D6F6E74683A004433
:1017EE0061793A00446179206F66207765656B20D8
:1017FE0028313D73756E646179293A00486F7572B0
:10180E003A004D696E7574653A005365636F6E6488
:02181E003A008E
:00000001FF
